{
	"data": {
		"bytecode": {
			"linkReferences": {},
			"object": "6080604052600a5f553480156012575f80fd5b50610fc7806100205f395ff3fe608060405234801561000f575f80fd5b5060043610610055575f3560e01c806305a1b4a914610059578063112f54e31461008c57806312e7ee1c146100bc5780636c02e8b7146100ec5780637c9cd2bc1461010a575b5f80fd5b610073600480360381019061006e9190610745565b610126565b6040516100839493929190610811565b60405180910390f35b6100a660048036038101906100a19190610745565b610211565b6040516100b39190610921565b60405180910390f35b6100d660048036038101906100d19190610941565b61037f565b6040516100e39190610a87565b60405180910390f35b6100f4610510565b6040516101019190610aa7565b60405180910390f35b610124600480360381019061011f9190610bec565b610515565b005b6001602052815f5260405f20818154811061013f575f80fd5b905f5260205f2090600402015f9150915050805f015f9054906101000a900473ffffffffffffffffffffffffffffffffffffffff169080600101805461018490610c60565b80601f01602080910402602001604051908101604052809291908181526020018280546101b090610c60565b80156101fb5780601f106101d2576101008083540402835291602001916101fb565b820191905f5260205f20905b8154815290600101906020018083116101de57829003601f168201915b5050505050908060020154908060030154905084565b61021961066c565b60015f8473ffffffffffffffffffffffffffffffffffffffff1673ffffffffffffffffffffffffffffffffffffffff1681526020019081526020015f20828154811061026857610267610c90565b5b905f5260205f2090600402016040518060800160405290815f82015f9054906101000a900473ffffffffffffffffffffffffffffffffffffffff1673ffffffffffffffffffffffffffffffffffffffff1673ffffffffffffffffffffffffffffffffffffffff1681526020016001820180546102e390610c60565b80601f016020809104026020016040519081016040528092919081815260200182805461030f90610c60565b801561035a5780601f106103315761010080835404028352916020019161035a565b820191905f5260205f20905b81548152906001019060200180831161033d57829003601f168201915b5050505050815260200160028201548152602001600382015481525050905092915050565b606060015f8373ffffffffffffffffffffffffffffffffffffffff1673ffffffffffffffffffffffffffffffffffffffff1681526020019081526020015f20805480602002602001604051908101604052809291908181526020015f905b82821015610505578382905f5260205f2090600402016040518060800160405290815f82015f9054906101000a900473ffffffffffffffffffffffffffffffffffffffff1673ffffffffffffffffffffffffffffffffffffffff1673ffffffffffffffffffffffffffffffffffffffff16815260200160018201805461046290610c60565b80601f016020809104026020016040519081016040528092919081815260200182805461048e90610c60565b80156104d95780601f106104b0576101008083540402835291602001916104d9565b820191905f5260205f20905b8154815290600101906020018083116104bc57829003601f168201915b5050505050815260200160028201548152602001600382015481525050815260200190600101906103dd565b505050509050919050565b5f5481565b5f548151111561055a576040517f08c379a000000000000000000000000000000000000000000000000000000000815260040161055190610d07565b60405180910390fd5b5f60405180608001604052803373ffffffffffffffffffffffffffffffffffffffff1681526020018381526020014281526020015f815250905060015f3373ffffffffffffffffffffffffffffffffffffffff1673ffffffffffffffffffffffffffffffffffffffff1681526020019081526020015f2081908060018154018082558091505060019003905f5260205f2090600402015f909190919091505f820151815f015f6101000a81548173ffffffffffffffffffffffffffffffffffffffff021916908373ffffffffffffffffffffffffffffffffffffffff16021790555060208201518160010190816106519190610ec2565b50604082015181600201556060820151816003015550505050565b60405180608001604052805f73ffffffffffffffffffffffffffffffffffffffff168152602001606081526020015f81526020015f81525090565b5f604051905090565b5f80fd5b5f80fd5b5f73ffffffffffffffffffffffffffffffffffffffff82169050919050565b5f6106e1826106b8565b9050919050565b6106f1816106d7565b81146106fb575f80fd5b50565b5f8135905061070c816106e8565b92915050565b5f819050919050565b61072481610712565b811461072e575f80fd5b50565b5f8135905061073f8161071b565b92915050565b5f806040838503121561075b5761075a6106b0565b5b5f610768858286016106fe565b925050602061077985828601610731565b9150509250929050565b61078c816106d7565b82525050565b5f81519050919050565b5f82825260208201905092915050565b8281835e5f83830152505050565b5f601f19601f8301169050919050565b5f6107d482610792565b6107de818561079c565b93506107ee8185602086016107ac565b6107f7816107ba565b840191505092915050565b61080b81610712565b82525050565b5f6080820190506108245f830187610783565b818103602083015261083681866107ca565b90506108456040830185610802565b6108526060830184610802565b95945050505050565b610864816106d7565b82525050565b5f82825260208201905092915050565b5f61088482610792565b61088e818561086a565b935061089e8185602086016107ac565b6108a7816107ba565b840191505092915050565b6108bb81610712565b82525050565b5f608083015f8301516108d65f86018261085b565b50602083015184820360208601526108ee828261087a565b915050604083015161090360408601826108b2565b50606083015161091660608601826108b2565b508091505092915050565b5f6020820190508181035f83015261093981846108c1565b905092915050565b5f60208284031215610956576109556106b0565b5b5f610963848285016106fe565b91505092915050565b5f81519050919050565b5f82825260208201905092915050565b5f819050602082019050919050565b5f608083015f8301516109aa5f86018261085b565b50602083015184820360208601526109c2828261087a565b91505060408301516109d760408601826108b2565b5060608301516109ea60608601826108b2565b508091505092915050565b5f610a008383610995565b905092915050565b5f602082019050919050565b5f610a1e8261096c565b610a288185610976565b935083602082028501610a3a85610986565b805f5b85811015610a755784840389528151610a5685826109f5565b9450610a6183610a08565b925060208a01995050600181019050610a3d565b50829750879550505050505092915050565b5f6020820190508181035f830152610a9f8184610a14565b905092915050565b5f602082019050610aba5f830184610802565b92915050565b5f80fd5b5f80fd5b7f4e487b71000000000000000000000000000000000000000000000000000000005f52604160045260245ffd5b610afe826107ba565b810181811067ffffffffffffffff82111715610b1d57610b1c610ac8565b5b80604052505050565b5f610b2f6106a7565b9050610b3b8282610af5565b919050565b5f67ffffffffffffffff821115610b5a57610b59610ac8565b5b610b63826107ba565b9050602081019050919050565b828183375f83830152505050565b5f610b90610b8b84610b40565b610b26565b905082815260208101848484011115610bac57610bab610ac4565b5b610bb7848285610b70565b509392505050565b5f82601f830112610bd357610bd2610ac0565b5b8135610be3848260208601610b7e565b91505092915050565b5f60208284031215610c0157610c006106b0565b5b5f82013567ffffffffffffffff811115610c1e57610c1d6106b4565b5b610c2a84828501610bbf565b91505092915050565b7f4e487b71000000000000000000000000000000000000000000000000000000005f52602260045260245ffd5b5f6002820490506001821680610c7757607f821691505b602082108103610c8a57610c89610c33565b5b50919050565b7f4e487b71000000000000000000000000000000000000000000000000000000005f52603260045260245ffd5b7f6c696d6974206f662063686172616374657273207061737365640000000000005f82015250565b5f610cf1601a8361079c565b9150610cfc82610cbd565b602082019050919050565b5f6020820190508181035f830152610d1e81610ce5565b9050919050565b5f819050815f5260205f209050919050565b5f6020601f8301049050919050565b5f82821b905092915050565b5f60088302610d817fffffffffffffffffffffffffffffffffffffffffffffffffffffffffffffffff82610d46565b610d8b8683610d46565b95508019841693508086168417925050509392505050565b5f819050919050565b5f610dc6610dc1610dbc84610712565b610da3565b610712565b9050919050565b5f819050919050565b610ddf83610dac565b610df3610deb82610dcd565b848454610d52565b825550505050565b5f90565b610e07610dfb565b610e12818484610dd6565b505050565b5b81811015610e3557610e2a5f82610dff565b600181019050610e18565b5050565b601f821115610e7a57610e4b81610d25565b610e5484610d37565b81016020851015610e63578190505b610e77610e6f85610d37565b830182610e17565b50505b505050565b5f82821c905092915050565b5f610e9a5f1984600802610e7f565b1980831691505092915050565b5f610eb28383610e8b565b9150826002028217905092915050565b610ecb82610792565b67ffffffffffffffff811115610ee457610ee3610ac8565b5b610eee8254610c60565b610ef9828285610e39565b5f60209050601f831160018114610f2a575f8415610f18578287015190505b610f228582610ea7565b865550610f89565b601f198416610f3886610d25565b5f5b82811015610f5f57848901518255600182019150602085019450602081019050610f3a565b86831015610f7c5784890151610f78601f891682610e8b565b8355505b6001600288020188555050505b50505050505056fea2646970667358221220ca59e77de0cbffb080aee276bfad86b369ec54121ef1ff12aeeae8e0c0bdf36d64736f6c634300081a0033",
			"opcodes": "PUSH1 0x80 PUSH1 0x40 MSTORE PUSH1 0xA PUSH0 SSTORE CALLVALUE DUP1 ISZERO PUSH1 0x12 JUMPI PUSH0 DUP1 REVERT JUMPDEST POP PUSH2 0xFC7 DUP1 PUSH2 0x20 PUSH0 CODECOPY PUSH0 RETURN INVALID PUSH1 0x80 PUSH1 0x40 MSTORE CALLVALUE DUP1 ISZERO PUSH2 0xF JUMPI PUSH0 DUP1 REVERT JUMPDEST POP PUSH1 0x4 CALLDATASIZE LT PUSH2 0x55 JUMPI PUSH0 CALLDATALOAD PUSH1 0xE0 SHR DUP1 PUSH4 0x5A1B4A9 EQ PUSH2 0x59 JUMPI DUP1 PUSH4 0x112F54E3 EQ PUSH2 0x8C JUMPI DUP1 PUSH4 0x12E7EE1C EQ PUSH2 0xBC JUMPI DUP1 PUSH4 0x6C02E8B7 EQ PUSH2 0xEC JUMPI DUP1 PUSH4 0x7C9CD2BC EQ PUSH2 0x10A JUMPI JUMPDEST PUSH0 DUP1 REVERT JUMPDEST PUSH2 0x73 PUSH1 0x4 DUP1 CALLDATASIZE SUB DUP2 ADD SWAP1 PUSH2 0x6E SWAP2 SWAP1 PUSH2 0x745 JUMP JUMPDEST PUSH2 0x126 JUMP JUMPDEST PUSH1 0x40 MLOAD PUSH2 0x83 SWAP5 SWAP4 SWAP3 SWAP2 SWAP1 PUSH2 0x811 JUMP JUMPDEST PUSH1 0x40 MLOAD DUP1 SWAP2 SUB SWAP1 RETURN JUMPDEST PUSH2 0xA6 PUSH1 0x4 DUP1 CALLDATASIZE SUB DUP2 ADD SWAP1 PUSH2 0xA1 SWAP2 SWAP1 PUSH2 0x745 JUMP JUMPDEST PUSH2 0x211 JUMP JUMPDEST PUSH1 0x40 MLOAD PUSH2 0xB3 SWAP2 SWAP1 PUSH2 0x921 JUMP JUMPDEST PUSH1 0x40 MLOAD DUP1 SWAP2 SUB SWAP1 RETURN JUMPDEST PUSH2 0xD6 PUSH1 0x4 DUP1 CALLDATASIZE SUB DUP2 ADD SWAP1 PUSH2 0xD1 SWAP2 SWAP1 PUSH2 0x941 JUMP JUMPDEST PUSH2 0x37F JUMP JUMPDEST PUSH1 0x40 MLOAD PUSH2 0xE3 SWAP2 SWAP1 PUSH2 0xA87 JUMP JUMPDEST PUSH1 0x40 MLOAD DUP1 SWAP2 SUB SWAP1 RETURN JUMPDEST PUSH2 0xF4 PUSH2 0x510 JUMP JUMPDEST PUSH1 0x40 MLOAD PUSH2 0x101 SWAP2 SWAP1 PUSH2 0xAA7 JUMP JUMPDEST PUSH1 0x40 MLOAD DUP1 SWAP2 SUB SWAP1 RETURN JUMPDEST PUSH2 0x124 PUSH1 0x4 DUP1 CALLDATASIZE SUB DUP2 ADD SWAP1 PUSH2 0x11F SWAP2 SWAP1 PUSH2 0xBEC JUMP JUMPDEST PUSH2 0x515 JUMP JUMPDEST STOP JUMPDEST PUSH1 0x1 PUSH1 0x20 MSTORE DUP2 PUSH0 MSTORE PUSH1 0x40 PUSH0 KECCAK256 DUP2 DUP2 SLOAD DUP2 LT PUSH2 0x13F JUMPI PUSH0 DUP1 REVERT JUMPDEST SWAP1 PUSH0 MSTORE PUSH1 0x20 PUSH0 KECCAK256 SWAP1 PUSH1 0x4 MUL ADD PUSH0 SWAP2 POP SWAP2 POP POP DUP1 PUSH0 ADD PUSH0 SWAP1 SLOAD SWAP1 PUSH2 0x100 EXP SWAP1 DIV PUSH20 0xFFFFFFFFFFFFFFFFFFFFFFFFFFFFFFFFFFFFFFFF AND SWAP1 DUP1 PUSH1 0x1 ADD DUP1 SLOAD PUSH2 0x184 SWAP1 PUSH2 0xC60 JUMP JUMPDEST DUP1 PUSH1 0x1F ADD PUSH1 0x20 DUP1 SWAP2 DIV MUL PUSH1 0x20 ADD PUSH1 0x40 MLOAD SWAP1 DUP2 ADD PUSH1 0x40 MSTORE DUP1 SWAP3 SWAP2 SWAP1 DUP2 DUP2 MSTORE PUSH1 0x20 ADD DUP3 DUP1 SLOAD PUSH2 0x1B0 SWAP1 PUSH2 0xC60 JUMP JUMPDEST DUP1 ISZERO PUSH2 0x1FB JUMPI DUP1 PUSH1 0x1F LT PUSH2 0x1D2 JUMPI PUSH2 0x100 DUP1 DUP4 SLOAD DIV MUL DUP4 MSTORE SWAP2 PUSH1 0x20 ADD SWAP2 PUSH2 0x1FB JUMP JUMPDEST DUP3 ADD SWAP2 SWAP1 PUSH0 MSTORE PUSH1 0x20 PUSH0 KECCAK256 SWAP1 JUMPDEST DUP2 SLOAD DUP2 MSTORE SWAP1 PUSH1 0x1 ADD SWAP1 PUSH1 0x20 ADD DUP1 DUP4 GT PUSH2 0x1DE JUMPI DUP3 SWAP1 SUB PUSH1 0x1F AND DUP3 ADD SWAP2 JUMPDEST POP POP POP POP POP SWAP1 DUP1 PUSH1 0x2 ADD SLOAD SWAP1 DUP1 PUSH1 0x3 ADD SLOAD SWAP1 POP DUP5 JUMP JUMPDEST PUSH2 0x219 PUSH2 0x66C JUMP JUMPDEST PUSH1 0x1 PUSH0 DUP5 PUSH20 0xFFFFFFFFFFFFFFFFFFFFFFFFFFFFFFFFFFFFFFFF AND PUSH20 0xFFFFFFFFFFFFFFFFFFFFFFFFFFFFFFFFFFFFFFFF AND DUP2 MSTORE PUSH1 0x20 ADD SWAP1 DUP2 MSTORE PUSH1 0x20 ADD PUSH0 KECCAK256 DUP3 DUP2 SLOAD DUP2 LT PUSH2 0x268 JUMPI PUSH2 0x267 PUSH2 0xC90 JUMP JUMPDEST JUMPDEST SWAP1 PUSH0 MSTORE PUSH1 0x20 PUSH0 KECCAK256 SWAP1 PUSH1 0x4 MUL ADD PUSH1 0x40 MLOAD DUP1 PUSH1 0x80 ADD PUSH1 0x40 MSTORE SWAP1 DUP2 PUSH0 DUP3 ADD PUSH0 SWAP1 SLOAD SWAP1 PUSH2 0x100 EXP SWAP1 DIV PUSH20 0xFFFFFFFFFFFFFFFFFFFFFFFFFFFFFFFFFFFFFFFF AND PUSH20 0xFFFFFFFFFFFFFFFFFFFFFFFFFFFFFFFFFFFFFFFF AND PUSH20 0xFFFFFFFFFFFFFFFFFFFFFFFFFFFFFFFFFFFFFFFF AND DUP2 MSTORE PUSH1 0x20 ADD PUSH1 0x1 DUP3 ADD DUP1 SLOAD PUSH2 0x2E3 SWAP1 PUSH2 0xC60 JUMP JUMPDEST DUP1 PUSH1 0x1F ADD PUSH1 0x20 DUP1 SWAP2 DIV MUL PUSH1 0x20 ADD PUSH1 0x40 MLOAD SWAP1 DUP2 ADD PUSH1 0x40 MSTORE DUP1 SWAP3 SWAP2 SWAP1 DUP2 DUP2 MSTORE PUSH1 0x20 ADD DUP3 DUP1 SLOAD PUSH2 0x30F SWAP1 PUSH2 0xC60 JUMP JUMPDEST DUP1 ISZERO PUSH2 0x35A JUMPI DUP1 PUSH1 0x1F LT PUSH2 0x331 JUMPI PUSH2 0x100 DUP1 DUP4 SLOAD DIV MUL DUP4 MSTORE SWAP2 PUSH1 0x20 ADD SWAP2 PUSH2 0x35A JUMP JUMPDEST DUP3 ADD SWAP2 SWAP1 PUSH0 MSTORE PUSH1 0x20 PUSH0 KECCAK256 SWAP1 JUMPDEST DUP2 SLOAD DUP2 MSTORE SWAP1 PUSH1 0x1 ADD SWAP1 PUSH1 0x20 ADD DUP1 DUP4 GT PUSH2 0x33D JUMPI DUP3 SWAP1 SUB PUSH1 0x1F AND DUP3 ADD SWAP2 JUMPDEST POP POP POP POP POP DUP2 MSTORE PUSH1 0x20 ADD PUSH1 0x2 DUP3 ADD SLOAD DUP2 MSTORE PUSH1 0x20 ADD PUSH1 0x3 DUP3 ADD SLOAD DUP2 MSTORE POP POP SWAP1 POP SWAP3 SWAP2 POP POP JUMP JUMPDEST PUSH1 0x60 PUSH1 0x1 PUSH0 DUP4 PUSH20 0xFFFFFFFFFFFFFFFFFFFFFFFFFFFFFFFFFFFFFFFF AND PUSH20 0xFFFFFFFFFFFFFFFFFFFFFFFFFFFFFFFFFFFFFFFF AND DUP2 MSTORE PUSH1 0x20 ADD SWAP1 DUP2 MSTORE PUSH1 0x20 ADD PUSH0 KECCAK256 DUP1 SLOAD DUP1 PUSH1 0x20 MUL PUSH1 0x20 ADD PUSH1 0x40 MLOAD SWAP1 DUP2 ADD PUSH1 0x40 MSTORE DUP1 SWAP3 SWAP2 SWAP1 DUP2 DUP2 MSTORE PUSH1 0x20 ADD PUSH0 SWAP1 JUMPDEST DUP3 DUP3 LT ISZERO PUSH2 0x505 JUMPI DUP4 DUP3 SWAP1 PUSH0 MSTORE PUSH1 0x20 PUSH0 KECCAK256 SWAP1 PUSH1 0x4 MUL ADD PUSH1 0x40 MLOAD DUP1 PUSH1 0x80 ADD PUSH1 0x40 MSTORE SWAP1 DUP2 PUSH0 DUP3 ADD PUSH0 SWAP1 SLOAD SWAP1 PUSH2 0x100 EXP SWAP1 DIV PUSH20 0xFFFFFFFFFFFFFFFFFFFFFFFFFFFFFFFFFFFFFFFF AND PUSH20 0xFFFFFFFFFFFFFFFFFFFFFFFFFFFFFFFFFFFFFFFF AND PUSH20 0xFFFFFFFFFFFFFFFFFFFFFFFFFFFFFFFFFFFFFFFF AND DUP2 MSTORE PUSH1 0x20 ADD PUSH1 0x1 DUP3 ADD DUP1 SLOAD PUSH2 0x462 SWAP1 PUSH2 0xC60 JUMP JUMPDEST DUP1 PUSH1 0x1F ADD PUSH1 0x20 DUP1 SWAP2 DIV MUL PUSH1 0x20 ADD PUSH1 0x40 MLOAD SWAP1 DUP2 ADD PUSH1 0x40 MSTORE DUP1 SWAP3 SWAP2 SWAP1 DUP2 DUP2 MSTORE PUSH1 0x20 ADD DUP3 DUP1 SLOAD PUSH2 0x48E SWAP1 PUSH2 0xC60 JUMP JUMPDEST DUP1 ISZERO PUSH2 0x4D9 JUMPI DUP1 PUSH1 0x1F LT PUSH2 0x4B0 JUMPI PUSH2 0x100 DUP1 DUP4 SLOAD DIV MUL DUP4 MSTORE SWAP2 PUSH1 0x20 ADD SWAP2 PUSH2 0x4D9 JUMP JUMPDEST DUP3 ADD SWAP2 SWAP1 PUSH0 MSTORE PUSH1 0x20 PUSH0 KECCAK256 SWAP1 JUMPDEST DUP2 SLOAD DUP2 MSTORE SWAP1 PUSH1 0x1 ADD SWAP1 PUSH1 0x20 ADD DUP1 DUP4 GT PUSH2 0x4BC JUMPI DUP3 SWAP1 SUB PUSH1 0x1F AND DUP3 ADD SWAP2 JUMPDEST POP POP POP POP POP DUP2 MSTORE PUSH1 0x20 ADD PUSH1 0x2 DUP3 ADD SLOAD DUP2 MSTORE PUSH1 0x20 ADD PUSH1 0x3 DUP3 ADD SLOAD DUP2 MSTORE POP POP DUP2 MSTORE PUSH1 0x20 ADD SWAP1 PUSH1 0x1 ADD SWAP1 PUSH2 0x3DD JUMP JUMPDEST POP POP POP POP SWAP1 POP SWAP2 SWAP1 POP JUMP JUMPDEST PUSH0 SLOAD DUP2 JUMP JUMPDEST PUSH0 SLOAD DUP2 MLOAD GT ISZERO PUSH2 0x55A JUMPI PUSH1 0x40 MLOAD PUSH32 0x8C379A000000000000000000000000000000000000000000000000000000000 DUP2 MSTORE PUSH1 0x4 ADD PUSH2 0x551 SWAP1 PUSH2 0xD07 JUMP JUMPDEST PUSH1 0x40 MLOAD DUP1 SWAP2 SUB SWAP1 REVERT JUMPDEST PUSH0 PUSH1 0x40 MLOAD DUP1 PUSH1 0x80 ADD PUSH1 0x40 MSTORE DUP1 CALLER PUSH20 0xFFFFFFFFFFFFFFFFFFFFFFFFFFFFFFFFFFFFFFFF AND DUP2 MSTORE PUSH1 0x20 ADD DUP4 DUP2 MSTORE PUSH1 0x20 ADD TIMESTAMP DUP2 MSTORE PUSH1 0x20 ADD PUSH0 DUP2 MSTORE POP SWAP1 POP PUSH1 0x1 PUSH0 CALLER PUSH20 0xFFFFFFFFFFFFFFFFFFFFFFFFFFFFFFFFFFFFFFFF AND PUSH20 0xFFFFFFFFFFFFFFFFFFFFFFFFFFFFFFFFFFFFFFFF AND DUP2 MSTORE PUSH1 0x20 ADD SWAP1 DUP2 MSTORE PUSH1 0x20 ADD PUSH0 KECCAK256 DUP2 SWAP1 DUP1 PUSH1 0x1 DUP2 SLOAD ADD DUP1 DUP3 SSTORE DUP1 SWAP2 POP POP PUSH1 0x1 SWAP1 SUB SWAP1 PUSH0 MSTORE PUSH1 0x20 PUSH0 KECCAK256 SWAP1 PUSH1 0x4 MUL ADD PUSH0 SWAP1 SWAP2 SWAP1 SWAP2 SWAP1 SWAP2 POP PUSH0 DUP3 ADD MLOAD DUP2 PUSH0 ADD PUSH0 PUSH2 0x100 EXP DUP2 SLOAD DUP2 PUSH20 0xFFFFFFFFFFFFFFFFFFFFFFFFFFFFFFFFFFFFFFFF MUL NOT AND SWAP1 DUP4 PUSH20 0xFFFFFFFFFFFFFFFFFFFFFFFFFFFFFFFFFFFFFFFF AND MUL OR SWAP1 SSTORE POP PUSH1 0x20 DUP3 ADD MLOAD DUP2 PUSH1 0x1 ADD SWAP1 DUP2 PUSH2 0x651 SWAP2 SWAP1 PUSH2 0xEC2 JUMP JUMPDEST POP PUSH1 0x40 DUP3 ADD MLOAD DUP2 PUSH1 0x2 ADD SSTORE PUSH1 0x60 DUP3 ADD MLOAD DUP2 PUSH1 0x3 ADD SSTORE POP POP POP POP JUMP JUMPDEST PUSH1 0x40 MLOAD DUP1 PUSH1 0x80 ADD PUSH1 0x40 MSTORE DUP1 PUSH0 PUSH20 0xFFFFFFFFFFFFFFFFFFFFFFFFFFFFFFFFFFFFFFFF AND DUP2 MSTORE PUSH1 0x20 ADD PUSH1 0x60 DUP2 MSTORE PUSH1 0x20 ADD PUSH0 DUP2 MSTORE PUSH1 0x20 ADD PUSH0 DUP2 MSTORE POP SWAP1 JUMP JUMPDEST PUSH0 PUSH1 0x40 MLOAD SWAP1 POP SWAP1 JUMP JUMPDEST PUSH0 DUP1 REVERT JUMPDEST PUSH0 DUP1 REVERT JUMPDEST PUSH0 PUSH20 0xFFFFFFFFFFFFFFFFFFFFFFFFFFFFFFFFFFFFFFFF DUP3 AND SWAP1 POP SWAP2 SWAP1 POP JUMP JUMPDEST PUSH0 PUSH2 0x6E1 DUP3 PUSH2 0x6B8 JUMP JUMPDEST SWAP1 POP SWAP2 SWAP1 POP JUMP JUMPDEST PUSH2 0x6F1 DUP2 PUSH2 0x6D7 JUMP JUMPDEST DUP2 EQ PUSH2 0x6FB JUMPI PUSH0 DUP1 REVERT JUMPDEST POP JUMP JUMPDEST PUSH0 DUP2 CALLDATALOAD SWAP1 POP PUSH2 0x70C DUP2 PUSH2 0x6E8 JUMP JUMPDEST SWAP3 SWAP2 POP POP JUMP JUMPDEST PUSH0 DUP2 SWAP1 POP SWAP2 SWAP1 POP JUMP JUMPDEST PUSH2 0x724 DUP2 PUSH2 0x712 JUMP JUMPDEST DUP2 EQ PUSH2 0x72E JUMPI PUSH0 DUP1 REVERT JUMPDEST POP JUMP JUMPDEST PUSH0 DUP2 CALLDATALOAD SWAP1 POP PUSH2 0x73F DUP2 PUSH2 0x71B JUMP JUMPDEST SWAP3 SWAP2 POP POP JUMP JUMPDEST PUSH0 DUP1 PUSH1 0x40 DUP4 DUP6 SUB SLT ISZERO PUSH2 0x75B JUMPI PUSH2 0x75A PUSH2 0x6B0 JUMP JUMPDEST JUMPDEST PUSH0 PUSH2 0x768 DUP6 DUP3 DUP7 ADD PUSH2 0x6FE JUMP JUMPDEST SWAP3 POP POP PUSH1 0x20 PUSH2 0x779 DUP6 DUP3 DUP7 ADD PUSH2 0x731 JUMP JUMPDEST SWAP2 POP POP SWAP3 POP SWAP3 SWAP1 POP JUMP JUMPDEST PUSH2 0x78C DUP2 PUSH2 0x6D7 JUMP JUMPDEST DUP3 MSTORE POP POP JUMP JUMPDEST PUSH0 DUP2 MLOAD SWAP1 POP SWAP2 SWAP1 POP JUMP JUMPDEST PUSH0 DUP3 DUP3 MSTORE PUSH1 0x20 DUP3 ADD SWAP1 POP SWAP3 SWAP2 POP POP JUMP JUMPDEST DUP3 DUP2 DUP4 MCOPY PUSH0 DUP4 DUP4 ADD MSTORE POP POP POP JUMP JUMPDEST PUSH0 PUSH1 0x1F NOT PUSH1 0x1F DUP4 ADD AND SWAP1 POP SWAP2 SWAP1 POP JUMP JUMPDEST PUSH0 PUSH2 0x7D4 DUP3 PUSH2 0x792 JUMP JUMPDEST PUSH2 0x7DE DUP2 DUP6 PUSH2 0x79C JUMP JUMPDEST SWAP4 POP PUSH2 0x7EE DUP2 DUP6 PUSH1 0x20 DUP7 ADD PUSH2 0x7AC JUMP JUMPDEST PUSH2 0x7F7 DUP2 PUSH2 0x7BA JUMP JUMPDEST DUP5 ADD SWAP2 POP POP SWAP3 SWAP2 POP POP JUMP JUMPDEST PUSH2 0x80B DUP2 PUSH2 0x712 JUMP JUMPDEST DUP3 MSTORE POP POP JUMP JUMPDEST PUSH0 PUSH1 0x80 DUP3 ADD SWAP1 POP PUSH2 0x824 PUSH0 DUP4 ADD DUP8 PUSH2 0x783 JUMP JUMPDEST DUP2 DUP2 SUB PUSH1 0x20 DUP4 ADD MSTORE PUSH2 0x836 DUP2 DUP7 PUSH2 0x7CA JUMP JUMPDEST SWAP1 POP PUSH2 0x845 PUSH1 0x40 DUP4 ADD DUP6 PUSH2 0x802 JUMP JUMPDEST PUSH2 0x852 PUSH1 0x60 DUP4 ADD DUP5 PUSH2 0x802 JUMP JUMPDEST SWAP6 SWAP5 POP POP POP POP POP JUMP JUMPDEST PUSH2 0x864 DUP2 PUSH2 0x6D7 JUMP JUMPDEST DUP3 MSTORE POP POP JUMP JUMPDEST PUSH0 DUP3 DUP3 MSTORE PUSH1 0x20 DUP3 ADD SWAP1 POP SWAP3 SWAP2 POP POP JUMP JUMPDEST PUSH0 PUSH2 0x884 DUP3 PUSH2 0x792 JUMP JUMPDEST PUSH2 0x88E DUP2 DUP6 PUSH2 0x86A JUMP JUMPDEST SWAP4 POP PUSH2 0x89E DUP2 DUP6 PUSH1 0x20 DUP7 ADD PUSH2 0x7AC JUMP JUMPDEST PUSH2 0x8A7 DUP2 PUSH2 0x7BA JUMP JUMPDEST DUP5 ADD SWAP2 POP POP SWAP3 SWAP2 POP POP JUMP JUMPDEST PUSH2 0x8BB DUP2 PUSH2 0x712 JUMP JUMPDEST DUP3 MSTORE POP POP JUMP JUMPDEST PUSH0 PUSH1 0x80 DUP4 ADD PUSH0 DUP4 ADD MLOAD PUSH2 0x8D6 PUSH0 DUP7 ADD DUP3 PUSH2 0x85B JUMP JUMPDEST POP PUSH1 0x20 DUP4 ADD MLOAD DUP5 DUP3 SUB PUSH1 0x20 DUP7 ADD MSTORE PUSH2 0x8EE DUP3 DUP3 PUSH2 0x87A JUMP JUMPDEST SWAP2 POP POP PUSH1 0x40 DUP4 ADD MLOAD PUSH2 0x903 PUSH1 0x40 DUP7 ADD DUP3 PUSH2 0x8B2 JUMP JUMPDEST POP PUSH1 0x60 DUP4 ADD MLOAD PUSH2 0x916 PUSH1 0x60 DUP7 ADD DUP3 PUSH2 0x8B2 JUMP JUMPDEST POP DUP1 SWAP2 POP POP SWAP3 SWAP2 POP POP JUMP JUMPDEST PUSH0 PUSH1 0x20 DUP3 ADD SWAP1 POP DUP2 DUP2 SUB PUSH0 DUP4 ADD MSTORE PUSH2 0x939 DUP2 DUP5 PUSH2 0x8C1 JUMP JUMPDEST SWAP1 POP SWAP3 SWAP2 POP POP JUMP JUMPDEST PUSH0 PUSH1 0x20 DUP3 DUP5 SUB SLT ISZERO PUSH2 0x956 JUMPI PUSH2 0x955 PUSH2 0x6B0 JUMP JUMPDEST JUMPDEST PUSH0 PUSH2 0x963 DUP5 DUP3 DUP6 ADD PUSH2 0x6FE JUMP JUMPDEST SWAP2 POP POP SWAP3 SWAP2 POP POP JUMP JUMPDEST PUSH0 DUP2 MLOAD SWAP1 POP SWAP2 SWAP1 POP JUMP JUMPDEST PUSH0 DUP3 DUP3 MSTORE PUSH1 0x20 DUP3 ADD SWAP1 POP SWAP3 SWAP2 POP POP JUMP JUMPDEST PUSH0 DUP2 SWAP1 POP PUSH1 0x20 DUP3 ADD SWAP1 POP SWAP2 SWAP1 POP JUMP JUMPDEST PUSH0 PUSH1 0x80 DUP4 ADD PUSH0 DUP4 ADD MLOAD PUSH2 0x9AA PUSH0 DUP7 ADD DUP3 PUSH2 0x85B JUMP JUMPDEST POP PUSH1 0x20 DUP4 ADD MLOAD DUP5 DUP3 SUB PUSH1 0x20 DUP7 ADD MSTORE PUSH2 0x9C2 DUP3 DUP3 PUSH2 0x87A JUMP JUMPDEST SWAP2 POP POP PUSH1 0x40 DUP4 ADD MLOAD PUSH2 0x9D7 PUSH1 0x40 DUP7 ADD DUP3 PUSH2 0x8B2 JUMP JUMPDEST POP PUSH1 0x60 DUP4 ADD MLOAD PUSH2 0x9EA PUSH1 0x60 DUP7 ADD DUP3 PUSH2 0x8B2 JUMP JUMPDEST POP DUP1 SWAP2 POP POP SWAP3 SWAP2 POP POP JUMP JUMPDEST PUSH0 PUSH2 0xA00 DUP4 DUP4 PUSH2 0x995 JUMP JUMPDEST SWAP1 POP SWAP3 SWAP2 POP POP JUMP JUMPDEST PUSH0 PUSH1 0x20 DUP3 ADD SWAP1 POP SWAP2 SWAP1 POP JUMP JUMPDEST PUSH0 PUSH2 0xA1E DUP3 PUSH2 0x96C JUMP JUMPDEST PUSH2 0xA28 DUP2 DUP6 PUSH2 0x976 JUMP JUMPDEST SWAP4 POP DUP4 PUSH1 0x20 DUP3 MUL DUP6 ADD PUSH2 0xA3A DUP6 PUSH2 0x986 JUMP JUMPDEST DUP1 PUSH0 JUMPDEST DUP6 DUP2 LT ISZERO PUSH2 0xA75 JUMPI DUP5 DUP5 SUB DUP10 MSTORE DUP2 MLOAD PUSH2 0xA56 DUP6 DUP3 PUSH2 0x9F5 JUMP JUMPDEST SWAP5 POP PUSH2 0xA61 DUP4 PUSH2 0xA08 JUMP JUMPDEST SWAP3 POP PUSH1 0x20 DUP11 ADD SWAP10 POP POP PUSH1 0x1 DUP2 ADD SWAP1 POP PUSH2 0xA3D JUMP JUMPDEST POP DUP3 SWAP8 POP DUP8 SWAP6 POP POP POP POP POP POP SWAP3 SWAP2 POP POP JUMP JUMPDEST PUSH0 PUSH1 0x20 DUP3 ADD SWAP1 POP DUP2 DUP2 SUB PUSH0 DUP4 ADD MSTORE PUSH2 0xA9F DUP2 DUP5 PUSH2 0xA14 JUMP JUMPDEST SWAP1 POP SWAP3 SWAP2 POP POP JUMP JUMPDEST PUSH0 PUSH1 0x20 DUP3 ADD SWAP1 POP PUSH2 0xABA PUSH0 DUP4 ADD DUP5 PUSH2 0x802 JUMP JUMPDEST SWAP3 SWAP2 POP POP JUMP JUMPDEST PUSH0 DUP1 REVERT JUMPDEST PUSH0 DUP1 REVERT JUMPDEST PUSH32 0x4E487B7100000000000000000000000000000000000000000000000000000000 PUSH0 MSTORE PUSH1 0x41 PUSH1 0x4 MSTORE PUSH1 0x24 PUSH0 REVERT JUMPDEST PUSH2 0xAFE DUP3 PUSH2 0x7BA JUMP JUMPDEST DUP2 ADD DUP2 DUP2 LT PUSH8 0xFFFFFFFFFFFFFFFF DUP3 GT OR ISZERO PUSH2 0xB1D JUMPI PUSH2 0xB1C PUSH2 0xAC8 JUMP JUMPDEST JUMPDEST DUP1 PUSH1 0x40 MSTORE POP POP POP JUMP JUMPDEST PUSH0 PUSH2 0xB2F PUSH2 0x6A7 JUMP JUMPDEST SWAP1 POP PUSH2 0xB3B DUP3 DUP3 PUSH2 0xAF5 JUMP JUMPDEST SWAP2 SWAP1 POP JUMP JUMPDEST PUSH0 PUSH8 0xFFFFFFFFFFFFFFFF DUP3 GT ISZERO PUSH2 0xB5A JUMPI PUSH2 0xB59 PUSH2 0xAC8 JUMP JUMPDEST JUMPDEST PUSH2 0xB63 DUP3 PUSH2 0x7BA JUMP JUMPDEST SWAP1 POP PUSH1 0x20 DUP2 ADD SWAP1 POP SWAP2 SWAP1 POP JUMP JUMPDEST DUP3 DUP2 DUP4 CALLDATACOPY PUSH0 DUP4 DUP4 ADD MSTORE POP POP POP JUMP JUMPDEST PUSH0 PUSH2 0xB90 PUSH2 0xB8B DUP5 PUSH2 0xB40 JUMP JUMPDEST PUSH2 0xB26 JUMP JUMPDEST SWAP1 POP DUP3 DUP2 MSTORE PUSH1 0x20 DUP2 ADD DUP5 DUP5 DUP5 ADD GT ISZERO PUSH2 0xBAC JUMPI PUSH2 0xBAB PUSH2 0xAC4 JUMP JUMPDEST JUMPDEST PUSH2 0xBB7 DUP5 DUP3 DUP6 PUSH2 0xB70 JUMP JUMPDEST POP SWAP4 SWAP3 POP POP POP JUMP JUMPDEST PUSH0 DUP3 PUSH1 0x1F DUP4 ADD SLT PUSH2 0xBD3 JUMPI PUSH2 0xBD2 PUSH2 0xAC0 JUMP JUMPDEST JUMPDEST DUP2 CALLDATALOAD PUSH2 0xBE3 DUP5 DUP3 PUSH1 0x20 DUP7 ADD PUSH2 0xB7E JUMP JUMPDEST SWAP2 POP POP SWAP3 SWAP2 POP POP JUMP JUMPDEST PUSH0 PUSH1 0x20 DUP3 DUP5 SUB SLT ISZERO PUSH2 0xC01 JUMPI PUSH2 0xC00 PUSH2 0x6B0 JUMP JUMPDEST JUMPDEST PUSH0 DUP3 ADD CALLDATALOAD PUSH8 0xFFFFFFFFFFFFFFFF DUP2 GT ISZERO PUSH2 0xC1E JUMPI PUSH2 0xC1D PUSH2 0x6B4 JUMP JUMPDEST JUMPDEST PUSH2 0xC2A DUP5 DUP3 DUP6 ADD PUSH2 0xBBF JUMP JUMPDEST SWAP2 POP POP SWAP3 SWAP2 POP POP JUMP JUMPDEST PUSH32 0x4E487B7100000000000000000000000000000000000000000000000000000000 PUSH0 MSTORE PUSH1 0x22 PUSH1 0x4 MSTORE PUSH1 0x24 PUSH0 REVERT JUMPDEST PUSH0 PUSH1 0x2 DUP3 DIV SWAP1 POP PUSH1 0x1 DUP3 AND DUP1 PUSH2 0xC77 JUMPI PUSH1 0x7F DUP3 AND SWAP2 POP JUMPDEST PUSH1 0x20 DUP3 LT DUP2 SUB PUSH2 0xC8A JUMPI PUSH2 0xC89 PUSH2 0xC33 JUMP JUMPDEST JUMPDEST POP SWAP2 SWAP1 POP JUMP JUMPDEST PUSH32 0x4E487B7100000000000000000000000000000000000000000000000000000000 PUSH0 MSTORE PUSH1 0x32 PUSH1 0x4 MSTORE PUSH1 0x24 PUSH0 REVERT JUMPDEST PUSH32 0x6C696D6974206F66206368617261637465727320706173736564000000000000 PUSH0 DUP3 ADD MSTORE POP JUMP JUMPDEST PUSH0 PUSH2 0xCF1 PUSH1 0x1A DUP4 PUSH2 0x79C JUMP JUMPDEST SWAP2 POP PUSH2 0xCFC DUP3 PUSH2 0xCBD JUMP JUMPDEST PUSH1 0x20 DUP3 ADD SWAP1 POP SWAP2 SWAP1 POP JUMP JUMPDEST PUSH0 PUSH1 0x20 DUP3 ADD SWAP1 POP DUP2 DUP2 SUB PUSH0 DUP4 ADD MSTORE PUSH2 0xD1E DUP2 PUSH2 0xCE5 JUMP JUMPDEST SWAP1 POP SWAP2 SWAP1 POP JUMP JUMPDEST PUSH0 DUP2 SWAP1 POP DUP2 PUSH0 MSTORE PUSH1 0x20 PUSH0 KECCAK256 SWAP1 POP SWAP2 SWAP1 POP JUMP JUMPDEST PUSH0 PUSH1 0x20 PUSH1 0x1F DUP4 ADD DIV SWAP1 POP SWAP2 SWAP1 POP JUMP JUMPDEST PUSH0 DUP3 DUP3 SHL SWAP1 POP SWAP3 SWAP2 POP POP JUMP JUMPDEST PUSH0 PUSH1 0x8 DUP4 MUL PUSH2 0xD81 PUSH32 0xFFFFFFFFFFFFFFFFFFFFFFFFFFFFFFFFFFFFFFFFFFFFFFFFFFFFFFFFFFFFFFFF DUP3 PUSH2 0xD46 JUMP JUMPDEST PUSH2 0xD8B DUP7 DUP4 PUSH2 0xD46 JUMP JUMPDEST SWAP6 POP DUP1 NOT DUP5 AND SWAP4 POP DUP1 DUP7 AND DUP5 OR SWAP3 POP POP POP SWAP4 SWAP3 POP POP POP JUMP JUMPDEST PUSH0 DUP2 SWAP1 POP SWAP2 SWAP1 POP JUMP JUMPDEST PUSH0 PUSH2 0xDC6 PUSH2 0xDC1 PUSH2 0xDBC DUP5 PUSH2 0x712 JUMP JUMPDEST PUSH2 0xDA3 JUMP JUMPDEST PUSH2 0x712 JUMP JUMPDEST SWAP1 POP SWAP2 SWAP1 POP JUMP JUMPDEST PUSH0 DUP2 SWAP1 POP SWAP2 SWAP1 POP JUMP JUMPDEST PUSH2 0xDDF DUP4 PUSH2 0xDAC JUMP JUMPDEST PUSH2 0xDF3 PUSH2 0xDEB DUP3 PUSH2 0xDCD JUMP JUMPDEST DUP5 DUP5 SLOAD PUSH2 0xD52 JUMP JUMPDEST DUP3 SSTORE POP POP POP POP JUMP JUMPDEST PUSH0 SWAP1 JUMP JUMPDEST PUSH2 0xE07 PUSH2 0xDFB JUMP JUMPDEST PUSH2 0xE12 DUP2 DUP5 DUP5 PUSH2 0xDD6 JUMP JUMPDEST POP POP POP JUMP JUMPDEST JUMPDEST DUP2 DUP2 LT ISZERO PUSH2 0xE35 JUMPI PUSH2 0xE2A PUSH0 DUP3 PUSH2 0xDFF JUMP JUMPDEST PUSH1 0x1 DUP2 ADD SWAP1 POP PUSH2 0xE18 JUMP JUMPDEST POP POP JUMP JUMPDEST PUSH1 0x1F DUP3 GT ISZERO PUSH2 0xE7A JUMPI PUSH2 0xE4B DUP2 PUSH2 0xD25 JUMP JUMPDEST PUSH2 0xE54 DUP5 PUSH2 0xD37 JUMP JUMPDEST DUP2 ADD PUSH1 0x20 DUP6 LT ISZERO PUSH2 0xE63 JUMPI DUP2 SWAP1 POP JUMPDEST PUSH2 0xE77 PUSH2 0xE6F DUP6 PUSH2 0xD37 JUMP JUMPDEST DUP4 ADD DUP3 PUSH2 0xE17 JUMP JUMPDEST POP POP JUMPDEST POP POP POP JUMP JUMPDEST PUSH0 DUP3 DUP3 SHR SWAP1 POP SWAP3 SWAP2 POP POP JUMP JUMPDEST PUSH0 PUSH2 0xE9A PUSH0 NOT DUP5 PUSH1 0x8 MUL PUSH2 0xE7F JUMP JUMPDEST NOT DUP1 DUP4 AND SWAP2 POP POP SWAP3 SWAP2 POP POP JUMP JUMPDEST PUSH0 PUSH2 0xEB2 DUP4 DUP4 PUSH2 0xE8B JUMP JUMPDEST SWAP2 POP DUP3 PUSH1 0x2 MUL DUP3 OR SWAP1 POP SWAP3 SWAP2 POP POP JUMP JUMPDEST PUSH2 0xECB DUP3 PUSH2 0x792 JUMP JUMPDEST PUSH8 0xFFFFFFFFFFFFFFFF DUP2 GT ISZERO PUSH2 0xEE4 JUMPI PUSH2 0xEE3 PUSH2 0xAC8 JUMP JUMPDEST JUMPDEST PUSH2 0xEEE DUP3 SLOAD PUSH2 0xC60 JUMP JUMPDEST PUSH2 0xEF9 DUP3 DUP3 DUP6 PUSH2 0xE39 JUMP JUMPDEST PUSH0 PUSH1 0x20 SWAP1 POP PUSH1 0x1F DUP4 GT PUSH1 0x1 DUP2 EQ PUSH2 0xF2A JUMPI PUSH0 DUP5 ISZERO PUSH2 0xF18 JUMPI DUP3 DUP8 ADD MLOAD SWAP1 POP JUMPDEST PUSH2 0xF22 DUP6 DUP3 PUSH2 0xEA7 JUMP JUMPDEST DUP7 SSTORE POP PUSH2 0xF89 JUMP JUMPDEST PUSH1 0x1F NOT DUP5 AND PUSH2 0xF38 DUP7 PUSH2 0xD25 JUMP JUMPDEST PUSH0 JUMPDEST DUP3 DUP2 LT ISZERO PUSH2 0xF5F JUMPI DUP5 DUP10 ADD MLOAD DUP3 SSTORE PUSH1 0x1 DUP3 ADD SWAP2 POP PUSH1 0x20 DUP6 ADD SWAP5 POP PUSH1 0x20 DUP2 ADD SWAP1 POP PUSH2 0xF3A JUMP JUMPDEST DUP7 DUP4 LT ISZERO PUSH2 0xF7C JUMPI DUP5 DUP10 ADD MLOAD PUSH2 0xF78 PUSH1 0x1F DUP10 AND DUP3 PUSH2 0xE8B JUMP JUMPDEST DUP4 SSTORE POP JUMPDEST PUSH1 0x1 PUSH1 0x2 DUP9 MUL ADD DUP9 SSTORE POP POP POP JUMPDEST POP POP POP POP POP POP JUMP INVALID LOG2 PUSH5 0x6970667358 0x22 SLT KECCAK256 0xCA MSIZE 0xE7 PUSH30 0xE0CBFFB080AEE276BFAD86B369EC54121EF1FF12AEEAE8E0C0BDF36D6473 PUSH16 0x6C634300081A00330000000000000000 "
		},
		"gasEstimates": {
			"creation": {
				"codeDepositCost": "807800",
				"executionCost": "22947",
				"totalCost": "830747"
			},
			"external": {
				"MAX_TWEET_LENGHT()": "2468",
				"createTweet(string)": "infinite",
				"getAllTweets(address)": "infinite",
				"getTweet(address,uint256)": "infinite",
				"tweets(address,uint256)": "infinite"
			}
		},
		"methodIdentifiers": {
			"MAX_TWEET_LENGHT()": "6c02e8b7",
			"createTweet(string)": "7c9cd2bc",
			"getAllTweets(address)": "12e7ee1c",
			"getTweet(address,uint256)": "112f54e3",
			"tweets(address,uint256)": "05a1b4a9"
		}
	},
	"abi": [
		{
			"inputs": [],
			"name": "MAX_TWEET_LENGHT",
			"outputs": [
				{
					"internalType": "uint256",
					"name": "",
					"type": "uint256"
				}
			],
			"stateMutability": "view",
			"type": "function"
		},
		{
			"inputs": [
				{
					"internalType": "string",
					"name": "_tweet",
					"type": "string"
				}
			],
			"name": "createTweet",
			"outputs": [],
			"stateMutability": "nonpayable",
			"type": "function"
		},
		{
			"inputs": [
				{
					"internalType": "address",
					"name": "_owner",
					"type": "address"
				}
			],
			"name": "getAllTweets",
			"outputs": [
				{
					"components": [
						{
							"internalType": "address",
							"name": "author",
							"type": "address"
						},
						{
							"internalType": "string",
							"name": "content",
							"type": "string"
						},
						{
							"internalType": "uint256",
							"name": "timestamp",
							"type": "uint256"
						},
						{
							"internalType": "uint256",
							"name": "like",
							"type": "uint256"
						}
					],
					"internalType": "struct Twitter.Tweet[]",
					"name": "",
					"type": "tuple[]"
				}
			],
			"stateMutability": "view",
			"type": "function"
		},
		{
			"inputs": [
				{
					"internalType": "address",
					"name": "_owner",
					"type": "address"
				},
				{
					"internalType": "uint256",
					"name": "_i",
					"type": "uint256"
				}
			],
			"name": "getTweet",
			"outputs": [
				{
					"components": [
						{
							"internalType": "address",
							"name": "author",
							"type": "address"
						},
						{
							"internalType": "string",
							"name": "content",
							"type": "string"
						},
						{
							"internalType": "uint256",
							"name": "timestamp",
							"type": "uint256"
						},
						{
							"internalType": "uint256",
							"name": "like",
							"type": "uint256"
						}
					],
					"internalType": "struct Twitter.Tweet",
					"name": "",
					"type": "tuple"
				}
			],
			"stateMutability": "view",
			"type": "function"
		},
		{
			"inputs": [
				{
					"internalType": "address",
					"name": "",
					"type": "address"
				},
				{
					"internalType": "uint256",
					"name": "",
					"type": "uint256"
				}
			],
			"name": "tweets",
			"outputs": [
				{
					"internalType": "address",
					"name": "author",
					"type": "address"
				},
				{
					"internalType": "string",
					"name": "content",
					"type": "string"
				},
				{
					"internalType": "uint256",
					"name": "timestamp",
					"type": "uint256"
				},
				{
					"internalType": "uint256",
					"name": "like",
					"type": "uint256"
				}
			],
			"stateMutability": "view",
			"type": "function"
		}
	]
}